:100000000C94D2150C94FA150C94FA150C94FD2945
:100010000C94FD290C94FD290C94FA150C94FA15F6
:100020000C94FA150C94FA150C94FA150C94FA1514
:100030000C94FA150C94FA150C94FA150C94FA1504
:100040000C945B290C94FA150C94CB290C94A529DB
:100050000C94FA150C94FA150C94FA150C94FA15E4
:100060000C94FA150C94FA150040FD3FF63FE93F59
:10007000D83FC13FA63F853F603F363F073FD23E56
:10008000993E5C3E193ED13D853D343DDE3C833C8E
:10009000233CBF3B563BE93A773A003A853906396B
:1000A0008238F9376C37DB364636AC350E356C3472
:1000B000C6331C336E32BC3106314D308F2FCE2EFD
:1000C000092E412D752CA52BD32AFC29232946283E
:1000D000662784269E25B524C923DB22EA21F62043
:1000E000FF1F071F0B1E0E1D0E1C0C1B071A0119EC
:1000F000F917EF16E315D614C613B612A411901013
:100100007B0F650E4E0D360C1D0B030AE808CC075D
:10011000B0069305760459033B021D010000B901A6
:100120008101B9818101398281013982E900B98176
:10013000E900B9818101B9018101A3015901A381BC
:100140005901118259011182E900A381E900A381BB
:100150005901A3015901EC011304EC81130422821B
:100160000F04528205047D82F403A182DB03BE8268
:10017000BD03D2829B03DF827403E3824803DF82E4
:100180001603D182EC02BC82C5029F82A302808248
:1001900085025B826A02088236020882BE01A9815A
:1001A000BE01A9816002F3818C021882A30236820B
:1001B000BB025182D8026582F402728216037682F3
:1001C000400374825C036C8274035F8289034E82F5
:1001D0009B033782A7031F82B0030382B603E58126
:1001E000B703AC81B3037781A6034A8193032681C9
:1001F0008103218181032181ED034B81FB038081F8
:100200000804B7811104EC811304EC011304BC0150
:100210005901BC815901288259012882E900BC8119
:10022000E900BC815901BC015901B6010204B68143
:1002300002042D8202042B82B00329825E032782EE
:100240000C032582BA0223826802218216021F82D1
:10025000C401C681C401C3811602C1816802BF8185
:10026000BA02BD810C03BA815E03B881B003B681C6
:100270000204B6010204E101BB03E181BB03BD81BD
:10028000B8039C81B0038081A20368818C035481F0
:100290007103468152033D812E033C8105033F815A
:1002A000D8024A81B3025C8195027A817A029281F6
:1002B0006D02AF816502EF815F02188262024382A4
:1002C0006A026C82770292828B029482A0029582EB
:1002D000BD029482E502918207038B822603848209
:1002E000410370826E0355828F033C82A3031F82F9
:1002F000B1030182BA03E181BB03E101BB03E20167
:100300001304E281130419820E044D8201047A82DF
:10031000EA03A282CB03CA829903E8825903F382DB
:100320003403FA8209030083DB020183A602FA8206
:100330004202E982E901CB829B01A28258018782B5
:100340003B016B8222014B820C012882FA00018260
:10035000EC00D881E200AC81DC007C81D9004881CE
:10036000DC001C81E6001C814B0122814B013581A0
:1003700044014D813D016B8137018D813601C4817E
:100380003A01F581470121825E0144827B0162824C
:10039000A3017A82CF018A82040292823E026282A3
:1003A00025023482140207820B02D5810702A6813E
:1003B0000A027D81110255811F022D8136020481BE
:1003C0005B02E6808802D580C002CE800103D48023
:1003D0003B03E2806E03FC809D031F81C7034881BD
:1003E000E7037781FF03AB810E04E2811304E2018E
:1003F0001304A9017802A98178027E8159025C81E7
:10040000310250811B02478101024181E701408195
:10041000CC014381AA014B818B015B816F0170810B
:1004200055018B814101A9813101CA812901EF81E7
:100430002601148229013482300152823D016B82EF
:100440004E01808265018E827E0197829B01998296
:10045000BB019482E90184820B02778219026582D2
:1004600029024D82370230824702F9815C02D7812E
:100470006902A9817802A9017802ED01C703ED8123
:10048000C703CD81C503B081BE039581B4037E81CE
:10049000A6036C8195035F81810357816A035481B0
:1004A00051035A812D0369810E038481F302AB81CC
:1004B000DC02C381D102E381C2022C82A902448200
:1004C000BB025882CE026982E0027482F302848207
:1004D0001B038A824903878264037E827D037082C4
:1004E00092035E82A4034682B4032B82BE030E8273
:1004F000C503ED81C703ED01C703ED011504ED81CF
:10050000150426821204588207048682F603AC8200
:10051000DC03CA82BE03E1829B03ED827603F38291
:100520004B03F0823003EA821503DF82FB02D182A3
:10053000E202BE82C802A882B3028D82A0026F824C
:100540008F026F828C0291827B02B0826902CA8222
:100550005302E1823E02F2822502FE8208020683F5
:10056000E9010883C70103839501F3826701DB82F8
:100570004001B7821B018D82FD005C82E70028826A
:10058000DB00ED81D600B081DB007A81E7004A8193
:10059000FD0021811901FF803D01E6806601D880C0
:1005A0009201D480C401D580E501DE800202E98099
:1005B0002002FA803B021081550228816C0246819C
:1005C000800266819102668193024881A6022F8192
:1005D000B7021A81CB020781DF02FA80F402F080B1
:1005E0000C03EB802703E9804403ED806E03FC805D
:1005F00096031281BA033381D9035A81F3038681AA
:100600000704B7811104ED811504ED011504E5001F
:100610000204E58002043F8102049A810204F5810C
:1006200002044F820204AA820204048302040483A7
:100630008C03DC824103B482F6028C82AB026482BA
:1006400060023C8215021482CA01EC817F01C481E0
:1006500034019C81E9002B81E900558137018081BB
:100660008501AA81D301D5812002FF816E022A82F1
:10067000BC0254820A037F825803A982A6034F82D8
:10068000A603F481A6039A81A6033F81A603E58011
:10069000A603E5800204E5000204ED018C02ED8171
:1006A0008C02C1818A029A818202728174024A811B
:1006B000600248814A0247812F02488107024B812C
:1006C000E3015181C4015881AA016D817E018881B5
:1006D0005C01A2814801BD813A01DB813101FC81CD
:1006E0002F012182330140823B015C824A017482E6
:1006F0005F0188827901978298019F82BD01A28261
:10070000E6019E8214029282380280825602628240
:100710007102488280022C828702ED818C02ED01F9
:100720008C0261021204618212047D82110495829E
:100730000F04C0820504C082A003BC82A003A8826B
:10074000A7038E82AE036F82B4035182B60319826F
:10075000B103E981A403BE818E039A816E037A817D
:10076000480363811B035281E6024A81AD02768110
:10077000C402A281D602D181E0020782E50236825C
:10078000E2026182DB028782CC02AF82B602D882AB
:100790009102F682630207832C020E83EA0108832A
:1007A000B101FA827D01E1824E01BE82250194826F
:1007B00004016582EC003282DE00FA81D800C38138
:1007C000DE009081EA00628101013C8120012581E7
:1007D00039011281540101817301F5809501E9808D
:1007E000BB01E280E601DC801402DB804502E1808F
:1007F000A902F280010310814E033A8192037081B5
:10080000C803B381F003D981FE0304820904308256
:100810000F0461821204610212041801020418819B
:10082000020478810204D78102043782020496828E
:100830000204F6820204F682A6039882A6033B8293
:10084000A603DD81A6038081A60380813C0380810D
:10085000D202AF81D502D881D6021482D302488257
:10086000CC027782BD02A282A502C7828402E38203
:100870005902F6822502FC82E501F682AF01E88288
:100880007B01CF824C01B082260186820501548211
:10089000EC001B82DE00D981D8009A81DC005C81EB
:1008A000E6002581F400F6800701F6807701FD80DF
:1008B00077012D815E01638148019E813A01D781D4
:1008C0003401FD8137012182400143824E015F8264
:1008D000650174827E0183829C018D82BE018F82BC
:1008E000E6018B820B0281822A02708244025982C5
:1008F00058023C826A0217827402EC817B02BD813D
:100900007D02638177023A81700218816A02188140
:10091000D0021881360318819C0318810204180143
:1009200002043702840337828403FA813C03BC81CA
:10093000F4027F81AD024281650204811D026B8158
:100940001D02D1811D0237821D0237827702378254
:10095000D10237822A0337828403370284033C02A0
:1009600002043C8202049E8202049E82A1039E82B3
:1009700040039E82DF029E827E029E821D021483BD
:100980001D021483C8019E82C8019E8259019E8265
:10099000E9003782E900378259013782C801D881DE
:1009A000C8017A81C8011B81C801BC80C801BC8014
:1009B0004202F38082022981C20260810203978190
:1009C0004203CE8182030582C2033C8202043C02C0
:1009D0000204E2011304E281130418821104488224
:1009E00008047382FB039882E603BA82CB03D282A7
:1009F000A903E1828103E6825303E3823403DB82AD
:100A00001603CB82FA02B782E0029F82CA02848276
:100A1000B8026882AC024A82A2024A829B026582C4
:100A2000950284828A02A2827A02BC826702D48200
:100A30004E02E6822D02F3820502F782D401F28291
:100A4000A001E3827001CB824501AC822201808249
:100A500001014D82EA001582DE00D781D800958120
:100A6000DC005581E7001B81F900EC800B01EC8074
:100A70007A01F3807A0125815F015E8148019B81C3
:100A80003A01D5813401F78137011C8240013E8251
:100A90004E01598260016F827A017E8295018782C0
:100AA000B4018A82DC01878202027C8223026C828A
:100AB0003B0257824F023C825C021C826602D2815A
:100AC0006C02A3816C02A381C402C881C402EF81BD
:100AD000C7021182CC022F82D8024A82E6025F82CC
:100AE000F8026D820F0377822A037A8248037782A5
:100AF00063036D827B035F828F034B829F0333828C
:100B0000AA031B82B103FE81B603DF81B703AB8169
:100B1000B3037381A4033C818F03088171030381B4
:100B200071030381E2032F81F30368810404A6812A
:100B30000F04E2811304E2011304DB011304DB81DF
:100B4000130415820F04488205047482F3039B8208
:100B5000D903B982B803CF829303DC826903E182AF
:100B60003803DE820C03D582E502C782BE02B3825F
:100B700099029C82780283825902638237023E8204
:100B80001202C881A6018E81730157814401AC8194
:100B900044010182440157824401AC824401018333
:100BA00044010183E900A882E9004E82E900F58151
:100BB000E9009B81E9004181E900E880E900E880E3
:100BC00058015881B9019081E901C1811802F08171
:100BD000470218827102368295024E82B6025E8208
:100BE000D3026B82F3027282120373823303708228
:100BF000510369826A035C8281034B8295033482CC
:100C0000A3031982AE03FC81B603D981B703A68181
:100C1000B3037081A6033781910301817103FC80C6
:100C20007103FC80E2032881F403618104049F8145
:100C30000F04DB811304DB011304DF010504DF81F2
:100C40000504338205043382AC03338252033382BA
:100C5000F9023382A002338246023382ED013382ED
:100C6000930133823A01D5823A01D582E9007F822D
:100C7000E9002982E900D381E9007D81E90026812C
:100C8000E90026813A017A813A01CD813A01CD818C
:100C90009301CD81EB01CD814402CD819C02CD81B8
:100CA000F502CD814E037A814E0326814E032681C3
:100CB00096036F819C039181A303A981AD03BE813B
:100CC000BB03D081CE03DB81E603DF810504DF01B6
:100CD0000504EF01BB03EF81BB03C081B6039B8119
:100CE000A6037E818C036881670358813A034E8195
:100CF00000034A81BE02488176024A8129024E8160
:100D0000EA015781B401668185017C816001988187
:100D10004701BE813601EF8130011C8236014182DC
:100D200045015F825F01748284018482B3018E82F7
:100D3000EA0192822A02958276029282C2028E8211
:100D4000020384823A03748269035E828C034182C7
:100D5000A6031C82B603EF81BB03EF01BB03EF01C7
:100D60001304EF81130430820C046982FA03998220
:100D7000D903BE82AC03DC827303F0822C03FD82B4
:100D8000D8020183760200834202FD821202F782BA
:100D9000E601F082BD01E6829801DB827601CE8217
:100DA0005801BE823D01988211016982F1003082B2
:100DB000DF00EF81D800AC81DF007381F100438157
:100DC00011011E813E0100817701EC80BE01DF80B0
:100DD0001402DB807602DC80A902DF80D802E58085
:100DE0000403EC802D03F6805203018174030E810D
:100DF00093031E81AE034481DB037381FA03AC814C
:100E00000C04EF811304EF011304D1000204D1801C
:100E10000204258102047A810204CE810204228226
:100E2000020477820204CB8202041F8302041F8320
:100E3000A303E8826003B2821D037B82DA0244824C
:100E400096020E825302D7811002A081CD016A81E1
:100E50008A013381470187814701DB8147012F8266
:100E6000470183824701D78247012A8347012A83AA
:100E7000E900D282E9007982E9002182E900C88193
:100E8000E9007081E9001781E900BF80E900BF80B7
:100E90004B01F5808E012B81D10161811402978174
:100EA0005602CD8199020482DC023A821F037082CD
:100EB0006203A682A4034882A403EB81A4038D816C
:100EC000A4032F81A403D180A403D1800204D10004
:100ED0000204A1000204A1800204158102044181E0
:100EE000BC036C81750398812E03C381E702EF81F7
:100EF000A0021B82E70246822E03728275039E8245
:100F0000BC03CA8202043A8302040C83B803DD8264
:100F10006E03AF8224038082DA0252828F02238220
:100F200045022382EE01238297012382400123821E
:100F3000E900BA81E900BA813D01BA819101BA8123
:100F4000E601BA813A028B8186025C81D2022D8150
:100F50001E03FF806A03D080B603A1800204A100B3
:100F60000204A6000204A680020421810204568124
:100F7000B2038B816103C1811003F681C0022D820F
:100F80001003638261039A82B203D1820204448314
:100F900002040D83B403D68265039F82170369821E
:100FA000C80232827A0269822A029F82D901D682DD
:100FB00089010D8339014483E900CA82E9009482E2
:100FC0003B015E828C012882DE01F2813002BA810F
:100FD000DE0183818C014B813B011481E900A180FA
:100FE000E900D88038010F8188014681D7017D81D1
:100FF0002602B58176027E81C502488114031281E2
:101000006403DC80B303A6800204A60002040E0081
:1010100002040E8002047A8002048F80B003A48050
:101020005D03B9800B03CD80B802E2806602F780D1
:1010300014020C81C10121816F013581C1014A81F6
:1010400014025F8166027381B80288810B039C8160
:101050005D03B181B003C68102043082020445827F
:10106000AF035A825C036F8209038382B6029882BF
:101070006202AD820F02C282BC01D7826901EB829B
:10108000BC0100830F02148362022983B6023E83EF
:10109000090352835C036783AF037C830204E38309
:1010A0000204CF83B303BA836403A583140391833B
:1010B000C5027C837602688326025383D7013E8370
:1010C00088012A8338011583E9009E82E90089821C
:1010D0003B0174828D015F82E0014B8232023682D5
:1010E00084022182D7020C822903F7817B03E381EA
:1010F0002903CE81D702BA818402A681320291816E
:10110000E0017D818D0168813B015481E900DF8030
:10111000E900CA803801B5808801A180D7018C80A0
:101120002602778076026280C5024D8014033880E3
:1011300064032380B3030E8002040E0002048A00BD
:1011400002048A800204FA8002041681B503328107
:1011500067034D811A036981CC0284817E02A081DC
:101160003102BC81E301D7819601F38148010F82EE
:1011700096012B82E3014782310262827E027E82E7
:10118000CC029A821A03B6826703D282B503ED823B
:101190000204588302043B83B3031E836403018368
:1011A0001403E582C502C8827602AB8226028E82D3
:1011B000D70171828801548238013782E900AB81FE
:1011C000E9008E813801718188015481D70137810E
:1011D00026021A817602FD80C502E1801403C480D4
:1011E0006403A780B3038A8002048A000204C40057
:1011F0000204C48002042D8102042D81A2032D81EA
:1012000042032D81E2022D8182022D812202308152
:10121000E9013681BD0141819901548179016F81D4
:101220005B0194814401C0813701F581330129823A
:1012300037015582440179825B0195827901A88248
:101240009901B382BE01BA82EA01BC822002BC824B
:101250008102BC82E102BC824203BC82A203BC8246
:101260000204258302042583A303258344032583E5
:10127000E50225838602258327022183D601128376
:101280009101F9825601D4822601A8820301748259
:10129000EA003982DE00F581D800AF81DE0072817C
:1012A000EC003F81040115812601F0805601D780B2
:1012B0008F01CE80B001C880D501C680FD01C480F9
:1012C0002702C4808602C480E502C4804403C4802F
:1012D000A303C4800204C40002049E0002049E8092
:1012E0000204F2800204468102049A810204EE8123
:1012F00002044282020496820204EA8202043E83CD
:1013000002043E83A403E082A4038282A403238216
:10131000A40323824D032382F60223829E022382AA
:1013200047022382EF012382980123824001238216
:10133000E900BA81E900BA814001BA819801BA8115
:10134000EF01BA814702BA819E02BA81F602BA81E0
:101350004D03BA81A4035B81A403FD80A4039E8096
:10136000A4039E8002049E000204F2011104F28193
:10137000110443820E048B820104CE82F0030783A2
:10138000D90307835D0300835D03E8827003CB828A
:101390008003AC828F0388829D033E82B003F2817A
:1013A000B603CA81B403A581AD038681A203698116
:1013B00093035281800343816A033981520336814A
:1013C00038033C810C035081EA025F81DD027381A6
:1013D000D2028B81C802A981C002BD81BB02D28129
:1013E000B702ED81B3020B82AD024482A202768283
:1013F00098029F828A02C3827A02E2826602FA829D
:1014000051020E8336021C8318022583F4012883BF
:10141000CB0122839D0112837001F7824501D582A1
:101420002301A88204017282ED003382DF00E9818A
:10143000DB009881DF004E81EA000A81FE00C38054
:101440001901C3809D01CB809D010B8171015581E4
:101450005101A2813D01EB8136011882390141829F
:101460003E0165824B0183825B019B826F01AC82EE
:101470008501B6829F01BA82BD01B782D501B382D0
:10148000EA01AB82FD019F820B027E822002518223
:101490003102FA81420298815502668162023C81E2
:1014A000730218818802FA80A202E580BE02D5800C
:1014B000DF02CB800503C8802E03CD805D03DC8076
:1014C0008903F780B0031C81D2034881ED037C813E
:1014D0000104B5810E04F2811104F20111045001DE
:1014E000A9035081A903508145035081E102508135
:1014F0007D02BA817D02E9817E02128285023482F8
:1015000092025182A6026682BE027482D9027D8254
:10151000FB02808223037D82440374826003658220
:1015200078034D828C03338299031782A203F581DD
:10153000A703CD81A9035081A9035001A903E600A7
:101540000204E680020455810204C4810204078279
:1015500001043D82FA036B82ED039482D803BA82C0
:10156000BA03D7829303E9826403EF822A03EC82F1
:101570000203E382DC02D782BA02C4829B02AC82FD
:10158000800291826902708255024D8244028882F3
:10159000FE01C482B901008374013C832E0177836C
:1015A000E900EF82E900BA822801848267014F8254
:1015B000A6011A82E501E5812502508125025081AC
:1015C000BB01508152015081E900E680E900E680CC
:1015D0004101E6809901E680F101E6804A02E68059
:1015E000A202E680FA02E6805203E680AA03E680C1
:1015F0000204E6000204F201B803F281B803B781E5
:10160000B3038681A3035A8189033381640315815F
:1016100036030081FE02F280BE02ED807602F28087
:101620002C020081EC011581B401358187015B81B9
:10163000620187814801B9813901F2813301298230
:1016400039015B82480187826201AD828701CD82C8
:10165000B401E282EC01EF822C02F4827602EF8286
:10166000BE02E282FE02CD823603AF82640388822C
:1016700089035C82A3032B82B303F281B803F201D6
:10168000B803F0011304F08113041982120441829B
:101690000C04668204048A82F703C882D503FD82A3
:1016A000A70328836D03488325035B83D2026283EB
:1016B00076025E8330025283F0014083B6012683B6
:1016C000800106835201E1822C01B6820C018782DF
:1016D000F4008E82BE00A3829600B3828800C88286
:1016E0007D00E3827700048374001C8376003983D5
:1016F0007B0052838100638387007283870072833B
:10170000260033831B00F3821800C7821B009F82D0
:1017100025007C8234005E824A0044826600328268
:1017200088002682B0002182DC000882D900F08186
:10173000D800C781DB00A181DF007C81E7005881F0
:10174000F4001A811601E4804401B98080019A8076
:10175000C70187801802808076028780D2029A8033
:101760002303B9806C03E580A7031A81D6035A814D
:10177000F7037D810404A2810C04C8811204F08166
:101780001304F00113047D01A9037D81A9037D8168
:101790003F037D81D4027D816A02D7816A02118272
:1017A0006F023E8277026382850280829B0295826D
:1017B000B602A382D102AB82EE02AD821103A982EE
:1017C00037039F8258038D82730373828903588283
:1017D00098033982A2031482A603E681A9037D81BE
:1017E000A9037D01A903140102041481020480816C
:1017F0000204EC8102042D82FF036582F7039482C8
:10180000E703BD82D103E582AE030383850315831D
:1018100052031B8313031783E0020883B102F38290
:101820008702D5826302A98240027482260257820F
:101830001C023482160210821202E88111027D819C
:1018400011027D81AE017D814B017D81E900148112
:10185000E90014814101148199011481F10114817D
:101860004A021481A2021481FA02148152031481E3
:10187000AA031481020414010204F201B803F281E4
:10188000B803B781B3038681A3035A8189033381E7
:101890006403158136030081FE02F280BE02ED80F2
:1018A0007602F2802C020081EC011581B4013581B1
:1018B00087015B81620187814801B9813901F28129
:1018C0003301298239015B82480187826201AD823E
:1018D0008701CD82B401E282EC01EF822C02F48216
:1018E0007602EF82BE02E282FE02CD823603AF8232
:1018F0006403888289035C82A3032B82B303F28191
:10190000B803F201B803F0011304F0811304198243
:10191000120441820C04668204048A82F703C8829E
:10192000D503FD82A70328836D03488325035B83CA
:10193000D202628376025B8319024783C501288342
:101940007E01FD824401C88215018A82F300418232
:10195000DF00F081D800C781DB00A181DF007C813E
:10196000E7005881F4001A811601E4804401B9802F
:1019700080019A80C7018780180280807602878064
:10198000D2029A802303B9806C03E580A7031A81F1
:10199000D6035A81F7037D810404A2810C04C88117
:1019A0001204F0811304F0011304C4000204C48083
:1019B0000204688102049381B103BE816003E9815E
:1019C0000F031482BE023F826D026A821C0295825E
:1019D000CB01C0827A01C082D701C0823302C082AB
:1019E0009002C082EC02C0824903C082A603C0827A
:1019F0000204228302042283AA0322835203228345
:101A0000FA022283A20222834A022283F101228364
:101A10009901228341012283E9009F82E9007582B6
:101A200038014B8287012282D501F8812402CE81C0
:101A30007302A481C2027A8111035081600326815E
:101A4000AE03268156032681FD022681A40226814B
:101A50004C022681F30126819A01268142012681CA
:101A6000E900C480E900C4804101C4809901C480B8
:101A7000F101C4804A02C480A202C480FA02C48078
:101A80005203C480AA03C4800204C4000204970065
:101A9000020497800204268102045181AA037B81FB
:101AA0005103A581F902D081A102FA814802238263
:101AB000A1024C82F902758251039E82AA03C78259
:101AC0000204598302045983AA0359835203598398
:101AD000FA025983A20259834A025983F1015983B8
:101AE0009901598341015983E900F082E900F082AC
:101AF0003E01F0829401F082E901F0823F02F0821F
:101B00009402F082EA02F0823F03F0829503CB82D6
:101B10004703A782FA028282AC025D825F023982A9
:101B200011021482C401D581C401B08111028C81DB
:101B30005F026781AC024281FA021E814703F9808D
:101B40009503F9803F03F980EA02F9809402F98055
:101B50003F02F980E901F9809401F9803E01F980A2
:101B6000E9009780E900978041019780990197806B
:101B7000F10197804A029780A2029780FA0297802B
:101B800052039780AA0397800204970002042B0156
:101B900002042B810204948102049481AB0394819A
:101BA00053039481FC029481A50294814D02948197
:101BB000F60194819E0194814701F78147015A8281
:101BC0004701BD824701218347012183E900CD827E
:101BD000E9007982E9002682E900D281E9007E816C
:101BE000E9002B81E9002B8141012B8199012B8197
:101BF000F1012B814A022B81A2022B81FA022B8157
:101C000052032B81AA032B8102042B010204E90059
:101C10000204E9800204528102045281B00352811D
:101C20005D0352810A035281B7025281650293819A
:101C3000AA02D381EE021382330353827803948283
:101C4000BD03D4820204548302041983C403DE82D8
:101C50008603A382480368820A032D82CC02F281A4
:101C60008E02308248026D820202AB82BB01E982A1
:101C7000750127832F016583E900DC82E9009D82DD
:101C800030015F8277012082BD01E1810402A281DF
:101C90004B025281F60152819C01528142015281D4
:101CA000E900E980E900E9804101E9809901E980E2
:101CB000F101E9804A02E980A202E980FA02E980A2
:101CC0005203E980AA03E9800204E90002047501D5
:101CD000020475810204D08102042B8202048782EF
:101CE00002048782AE0387825B03878207038782B1
:101CF000B30287825F0287820B028782B7018382E9
:101D0000850177825B016382360147821601258255
:101D1000FD00FC81EC00D081E2009C81DE007E8130
:101D2000DF005881E2003081E7001181ED00118170
:101D30004F0117814F012F8148014D8140016C8176
:101D40003A018E813901BA813B01DC814401F58180
:101D500051010782630112827B01198298011C8262
:101D6000B9011E82DF011E823C021E8298021E8281
:101D7000F5021E8252031E82AE03C981AE03758135
:101D8000AE0375810204750102044D0102044D8108
:101D90000204B58102041E82020487820204878243
:101DA000B1031F82B1031F8257031F82FD021F82EE
:101DB000A3021F8249021F82EE011F8294011F822B
:101DC0003A0187823A018782E9001E82E900B581E3
:101DD000E9004D81E9004D813A01B6813A01B681B1
:101DE0009401B681EE01B6814902B681A302B681A3
:101DF000FD02B6815703B681B1034D81B1034D8118
:101E000002044D010204C4000204C48002042D81B6
:101E100002042D819B032D8133032D81CB029181FF
:101E2000CB02F481CB025782CB02BA82CB02BA82B8
:101E30003303BA829B03BA820204238302042383FE
:101E4000AA03238352032383FA022383A202238358
:101E50004A022383F10123839901238341012383D0
:101E6000E900BA82E900BA824A01BA82AB01BA82B9
:101E70000C02BA826D0257826D02F4816D0291816B
:101E80006D022D816D022D810C022D81AB012D8102
:101E90004A012D81E900C480E900C4804101C48069
:101EA0009901C480F101C4804A02C480A202C480A6
:101EB000FA02C4805203C480AA03C4800204C4008E
:101EC00002042C0211042C82110470820E04B682CA
:101ED00001040083EC034E83C9034E834C03458306
:101EE0004C0330835C0315836E03F6828103D78233
:101EF0009103B082A0038482AC035282B40319829E
:101F0000B703DB81B103A281A203728187034781FA
:101F10006203258133030D81FD02FF80C002F98039
:101F20007A02FF8031020E81F1012681BA014A81D5
:101F30008A0176816501AB814A01E5813A012882F7
:101F400034015B8237018D823E01BD824B01E68206
:101F50005901E682BB01E6821C027C821C021282CD
:101F60001C02128278027C827802E68278024F8319
:101F700078024F8323024F83CE014F8379014F8331
:101F800023010B830801C182F0007682DF002C82DE
:101F9000D900D281E0008181F3003A811401FF80F1
:101FA0004001CE807A01A980C1019C80EA01928023
:101FB00015028D8044028B8077028D80A50292806D
:101FC000D1029B80FA02A8802203B7804503CA8011
:101FD0006703E1808703FA80A3031881BD0337817B
:101FE000D3035A81E6037E81F603A6810204D081E1
:101FF0000B04FD810F042C8211042C0211041F011B
:1020000002041F81020474810204C88102041D823B
:10201000020472820204C68202041B8302041B8330
:10202000A403B682A4035282A403ED81A403888191
:10203000A403888135038881C502DF81C50235820A
:10204000C5028C82C502E282C502E28267028C82EE
:10205000670235826702DF816702888167028881B3
:1020600008028881A801888149018881E9001F81CF
:10207000E9001F8141011F8199011F81F1011F8129
:102080004A021F81A2021F81FA021F8152031F818F
:10209000AA031F8102041F0102040801020408812F
:1020A000020460810204B78102040E820204658288
:1020B0000204BD820204148302041483A403C082B8
:1020C000A4036D82A4031982A403C581A4037281B1
:1020D000A403728138037281CB02C581CB021982BD
:1020E000CB026D82CB02C082CB021483CB0214835D
:1020F0006D02C0826D026D826D0219826D02C58112
:102100006D0272816D0272810B027281A90172816E
:102110004701C5814701198247016D824701C0828D
:102120004701148347011483E900BD82E9006582F9
:10213000E9000E82E900B781E9006081E9000881C9
:10214000E90008814101088199010881F1010881B4
:102150004A020881A2020881FA020881520308811A
:10216000AA0308810204080102042201A9032281B2
:10217000A903228151032281FA022281A202228133
:102180004B022281F30122819B012281440186813D
:102190004401CD8147010B824F0141825F0173826F
:1021A00079018E828C01A682A501BC82BE01CB8200
:1021B000DC01D882FD01E2822202E8824A02E98241
:1021C0007702E882A302E182CC02D782F302C882BE
:1021D0001303B6823303A1824E03868264036882AE
:1021E000780337828F0304829D03CA81A603868108
:1021F000A9032281A9032201A903B9000204B9801D
:1022000002041C81020480810204B6810204E88178
:10221000FE031282FA033782F3037782DF03AC8274
:10222000C403D282A903F4828903118364032A833D
:102230003D033E8311034D83E0025583AD02588375
:102240007602558340024B830E023D83DD012983D4
:10225000B1010F838701F2826301CF824201AB8219
:10226000290172820B013282F7000E82F100E381B4
:10227000ED00B681EA008181E9001D81E900B980A5
:10228000E900B9804101B9809901B980F101B980B3
:102290004A02B980A202B980FA02B9805203B98019
:1022A000AA03B9800204B900020433021104338284
:1022B000110473820E04B3820204F682ED0340839C
:1022C000CB0340834E0339834E0318836703F782A1
:1022D0007E03D7828F03B6829D037382B1032C8263
:1022E000B703F381B303C081A30392818B03698198
:1022F000670348813A03308102032181C1021B81B7
:102300007602218127023281E5014D81AF016C8186
:10231000820195816001C4814801F7813A012D82D3
:10232000360177823D01BC824F01FD827001398305
:102330009D0140839D01408322010B830B01F082AC
:102340000001CD82F3008782E2005E82DC003382EE
:10235000DB00E181E0009581F3007381010154818C
:102360001201368126011B813E0103815901ED8056
:102370007901DA809B01CA80C001BF80E901B58084
:102380001402AF804202AD807602AF80A502B58014
:10239000D202BD80FD02CA802503EB806C031A8146
:1023A000A7035181D5039481F603DF810B043382A7
:1023B00011043302110450016A0250816A025081F3
:1023C00008025081A50150814201DC8142011B823B
:1023D00045014D824A017682550195826501B082A0
:1023E0007B01C1829401CB82B301CF82D901CB8220
:1023F0000402C1822502AC8240028D8255027082A5
:1024000060024E82660226826902F6816A02A38118
:102410006A0250816A0250016A025001A903508188
:10242000A903508136035081C402D881C4020682B8
:10243000C5022882C8024482D1025E82DD02738214
:10244000F00281820703888223038B8242038A82FF
:102450005D038382730376828503638293034782DD
:102460009F032682A603FE81A703CE81A903508184
:10247000A9035001A903E6000204E68002045C817E
:102480000204D1810204FA8102041E8201043C820A
:10249000FF035482FD037E82F303A682E203CD8212
:1024A000C803E682A703F4828003FA825103F7820D
:1024B0003603F2821C03E9820503DC82F002BC824F
:1024C000CC028F82B1028F82AD02B682A202D88284
:1024D0009202F6827E020F83660223834A023283CF
:1024E00029023A8305023D83DD013783A601268355
:1024F00074010D834B01EA822A01BC820C0188829F
:10250000F7006C82F1004B82ED002882EA00008225
:10251000E900A281E9004481E900E680E900E68063
:102520004101E6809901E680F101E6804A02E680F9
:10253000A202E680FA02E6805203E680AA03E68061
:102540000204E6000204EF01A603EF81A603D38193
:102550005803B7810A039A81BC027E816E026281B0
:102560002002BF8120021D8220027A8220025E8228
:102570006E024282BC0227820A030B825803EF815B
:10258000A603EF01A603AB010204AB81020437826C
:1025900002045482B303718264038E821403AB82FB
:1025A000C502C8827602E58226020183D7011E8316
:1025B00088013B8338015883E900E882E900C18241
:1025C00058019982C7014482C701EE81C7019881F1
:1025D000C7014381C7011C815801F580E9008A8049
:1025E000E900A7803801C4808801E180D701FD801F
:1025F00026021A8176023781C50254811403718143
:1026000064038E81B303AB810204AB0102045375F2
:1026100074756D20556E6F20302E312E30002B00DA
:102620003C0B2B803C0B3880630B46808A0B54801C
:10263000AF0B6180D50B7180FB0B84801F0C9780E2
:10264000430CAB80670CBF808B0CD180AE0CEC8050
:10265000CE0C0881EE0C22810F0D3E812F0D58818A
:10266000500D7181710D8B81920DA581B30DBE81CD
:10267000D20DE781DB0D1082E30D3782EB0D5E8218
:10268000F50D8682FE0DB082010EDB82000E068300
:10269000FE0D3083FC0D5983FB0D8383F90DAB8355
:1026A000F70DD583F70DFC83F90D2484FB0D4D84C4
:1026B000FC0D7784FE0DA084FF0DCA84000EF38408
:1026C000020E1E85050E4885080E73850B0E9E852D
:1026D0000F0EC885120EF085150E1886180E42864C
:1026E0001B0E6A861E0E93861B0EBC86140EE58694
:1026F0000C0E0F87060E3887FF0D6087F70D898750
:10270000F00DB287E90DDC87E40D0688E00D318815
:10271000DC0D5B88D60D8488D20DAC88CD0DD688B3
:10272000C90D0089C90D2A89CA0D5489CC0D7C892F
:10273000CE0DA589CF0DCC89D00DF689D30D1F8A7A
:10274000D50D488ADA0D718AE10D9A8AE80DC28AA0
:10275000EE0DEA8AF60D118BFD0D3A8B030E638B9D
:10276000070E8C8B0A0EB68B0C0EDF8B0F0E088CAF
:10277000120E338C140E5E8C170E868C1A0EB18CD2
:102780001C0EDA8C1E0E028D210E2A8D240E528D07
:10279000220E7B8D1A0EA38D120ECC8D090EF48D98
:1027A000010E1B8EF90D448EF00D6C8EE80D958E8A
:1027B000E00DBD8ED70DDC8EBB0DF98E9C0D168FF6
:1027C0007C0D348F5D0D518F3C0D678F190D768F09
:1027D000F40C838FCD0C928FA70C9F8F820CAD8F42
:1027E0005B0CBB8F350CCA8F0F0CD28FE80BD08FD0
:1027F000BD0BCE8F920BCC8F670BC98F3D0BC78F54
:10280000130BC78FE90AD38FC30ADF8F9B0AEC8FA4
:10281000750AF98F500A0590280A1290020A1E9034
:10282000DC092A90B60936908F09439069094F90C8
:1028300043095E901D096F90F9088090D40891902B
:10284000AF08A1908A08B2906608BF903F08C09078
:102850001508C090EC07C090C207C1909B07C290BA
:102860007107C3904A07C3902107C090FA06B3903E
:10287000D406A490AE0696908906889062067A9057
:102880003C066B9016065F90F0055990C605549073
:102890009C054F9072054A90490544901F053E9053
:1028A000F5043890CC043390A2042E90780429903B
:1028B0004F04239025041E90FC031890D20314901B
:1028C000A90311907F030D90550308902B030490EA
:1028D00001030190D602FD8FAC02F28F8402E18FDA
:1028E0006002CF8F3B02BF8F1602AE8FF2019C8F2A
:1028F000CC018C8FA801798F8501598F6801398FA0
:102900004B01188F3101F48E1F01CF8E0D01AB8E5C
:10291000FA00868EE900618ED6003D8EC400188EC6
:10292000B300F48DA100CF8D8F00AB8D7C00838D23
:1029300073005A8D6E00318D6800098D6300DF8C45
:102940005D00B98C6500988C7D00768C9700558C65
:10295000B100348CCA00128CE000EE8BF300CA8BFD
:102960000601A58B1A01818B2B015E8B3E01378BF3
:102970004E010F8B5601E78A6001BF8A6901968A72
:1029800071016E8A7901458A80011D8A8A01F48964
:102990009201CB899901A389A2017A89AA0152895E
:1029A000B2012A89BE010489CB01DE88D901B88829
:1029B000E6019088EF016588F1013C88F2011188F9
:1029C000F401E887F701BD87F9019487FC016F875F
:1029D0000C024E8725022C873F020A875802EC869C
:1029E0007602CE869602AE86B2028A86C7026786D5
:1029F000DC024486F10221860503FE851903E58584
:102A00003703D9855D03CC858303AB859C038A8519
:102A1000B3036785CB034585E3032685000407855B
:102A20001E04E8843C04CA845A04A8847104868481
:102A3000880462849F044084B6041D84CD04FE8310
:102A4000E904DF830705C0832405A1834205818350
:102A500061056C8384055D83AA054E83CF053F83A2
:102A6000F50530831B061B833E0605836006ED8259
:102A70008306CD829F06AD82BC068D82D7066D820D
:102A8000F3064E820F0732822D0714824C07F6811F
:102A90006C07E0818F07CD81B207BA81D707A88183
:102AA000FB0795811F08838144086C816508488174
:102AB0007608248188081581AD080481D208F48045
:102AC000F708E4801D09D7804209C8806809B180F1
:102AD0008A099880AC098080CE096D80F2096880EF
:102AE0001B0A6480440A5F806E0A5A80970A5580E8
:102AF000C10A4980E40A3980090B2B803C0B2B006A
:102B00003C0B206F766572666C6F773D00206964C0
:102B10006C654F66663D002074696D656F75743D28
:102B2000002072656A65637465643D005375747551
:102B30006D20556E6F20302E312E30207061636B0A
:102B40006574733D0000000000240027002A000087
:102B5000000008000201000003040700000000005C
:102B600000000000000000230026002900010204EC
:102B700008102040800102040810200102040810FF
:102B80002000000000250028002B00040404040499
:102B9000040404020202020202030303030303000B
:102BA000752A3D3311241FBECFEFD8E0DEBFCDBF65
:102BB00023E0A4E9B1E001C01D92AF3DB207E1F707
:102BC00011E0A0E0B1E0E4E0F1E702C005900D9271
:102BD000A439B107D9F715E1C1EDD5E104C02197BA
:102BE000FE010E946136C03DD107C9F70E94E82C62
:102BF0000C9475380C940000CF92DF92EF92FF9204
:102C0000C090A203D090A303E090A403F090A5038A
:102C10006C157D058E059F0514F1C090AA03D09018
:102C2000AB03E090AC03F090AD03C616D706E80600
:102C3000F906C4F482E090E0C090A603D090A70308
:102C4000E090A803F090A9032C153D054E055F0503
:102C500064F48460FF90EF90DF90CF90089581E05E
:102C600090E0EACF90E080E0E7CFC090AE03D09054
:102C7000AF03E090B003F090B103C216D306E406B0
:102C8000F50644F78860E6CF8F929F92AF92BF928D
:102C9000CF92DF92EF92FF92CF9320915703309122
:102CA000580382179307E8F54B01AA24BB24C82DCB
:102CB000C52ED62EE72EFF24BC2DA42F20915D0318
:102CC000222361F0829E40011124C92D2C9D6001B8
:102CD0001124BD2D249FF0011124AF2FE091630337
:102CE000E0905E03F0905F0330916003E31323C034
:102CF0009C01220F331F820F931F8E0D9F1DE091A9
:102D00006003E80FF92FF11DC083E0916103E80F24
:102D1000F92FF11DB08320916203820F911DFC01F8
:102D2000A083CF91FF90EF90DF90CF90BF90AF90B6
:102D30009F908F900895880F991F880F991F8E0D6F
:102D40009F1D472F552766277727222349F030E01C
:102D5000249F7001259FF00C349FF00C11244F2DFF
:102D6000E80FF92FF11D4083CACF833081F028F49A
:102D7000813099F08230A9F008958730A9F0883029
:102D8000C9F08430B1F4809180008F7D03C08091C0
:102D900080008F7780938000089584B58F7784BDFD
:102DA000089584B58F7DFBCF8091B0008F7780939D
:102DB000B00008958091B0008F7DF9CFCF93DF935D
:102DC000282F30E0F901E15BF44D8491F901E359DA
:102DD000F44DD491F901E557F44DC491CC23A1F001
:102DE00081110E94B516EC2FF0E0EE0FFF1FED5998
:102DF000F44DA591B491EC91ED2381E090E009F4BC
:102E000080E0DF91CF91089580E090E0FACF1F93AA
:102E1000CF93DF93282F30E0F901E15BF44D8491EB
:102E2000F901E359F44DD491F901E557F44DC491FA
:102E3000CC23A9F0162F81110E94B516EC2FF0E0DB
:102E4000EE0FFF1FEF57F44DA591B4918FB7F89493
:102E5000EC91111108C0D095DE23DC938FBFDF9178
:102E6000CF911F910895DE2BF8CF80917B03909135
:102E70007C03892B69F08BE697E10197F1F71092BB
:102E80007C0310927B0360E080916D030C94071724
:102E90000895809154029091550297FD0CC060E016
:102EA0000E9407178FE090E00197F1F761E08091B1
:102EB00054020C9407170895CF93DF93EC0160E060
:102EC000809152020E940717DEBD00000DB407FE7C
:102ED000FDCF8EB5CEBD00000DB407FEFDCF8EB583
:102EE00061E0809152020E9407178091580281117F
:102EF00004C0DF91CF910C944917DF91CF910895D1
:102F0000CF93DF93EB01409156025091570221E09D
:102F100030E0042E02C0220F331F0A94E2F7215042
:102F200031098217930708F49C018CE090E0841B20
:102F3000950B02C0220F331F8A95E2F780914D0254
:102F400090914E028827907F822B932B90934E0274
:102F500080934D020E945C17409156025091570297
:102F600081E090E0042E02C0880F991F0A94E2F7D6
:102F70000197C817D90708F4CE012CE030E0241BD4
:102F8000350B02C0880F991F2A95E2F720914F0256
:102F9000309150022227307F822B932B9093500246
:102FA00080934F020E945C1780915802882321F081
:102FB000DF91CF910C944917DF91CF9108952F9213
:102FC0003F924F925F926F927F928F929F92AF92B9
:102FD000BF92CF92DF92EF92FF920F931F93CF9306
:102FE000DF93CDB7DEB76C970FB6F894DEBF0FBE98
:102FF000CDBF69877A878B879C872D873E874F87D0
:10300000588B8091730390917403A0917503B091D4
:10301000760349845A846B847C84481A590A6A0A64
:103020007B0A8091770390917803A0917903B09106
:103030007A03281B390B4A0B5B0B2D833E834F838E
:1030400058877301620177FE07C0CC24DD24760126
:10305000C418D508E608F7082D813E814F815885B0
:1030600029833A834B835C8357FF0BC0509540956F
:10307000309521953F4F4F4F5F4F29833A834B83C4
:103080005C839601A70169817A818B819C81C61638
:10309000D706E806F90624F429813A814B815C8140
:1030A00060916F037091700380917103909172032E
:1030B0000E94FC35705E8F4F9F4F20E030E440E06F
:1030C00050E00E94423649015A01181419041A04AA
:1030D0001B0424F0812C912C54018394809189034A
:1030E00090918A03A0918B03B0918C03898B9A8B6A
:1030F000AB8BBC8B29813A814B815C81C20ED31E84
:10310000E41EF51EC80ED91EEA1EFB1EC0928903DE
:10311000D0928A03E0928B03F0928C03C301B20138
:10312000EEE0660F771F881F991FEA95D1F7CD80D3
:10313000DE80EF80F884FEE0CC0CDD1CEE1CFF1C72
:10314000FA95D1F7A50194010E9442362D8B3E8B52
:103150004F8B588FC701B601A50194010E944236DA
:10316000298F3A8F4B8F5C8F9E828D8240E050E298
:1031700060E070E049835A836B837C83412CA0E23A
:103180005A2E612C712C22242394312C6D817E8146
:103190006215730509F4C1C000918D0310918E036F
:1031A00020918F03309190030F3F7FEF1707270780
:1031B000370709F46CC080919103811168C05301F5
:1031C00042015EE0B594A794979487945A95D1F7FD
:1031D000C980DA80EB80FC806EE0F594E794D794A8
:1031E000C7946A95D1F7D501C401B7FE07C08827F7
:1031F0009927DC0188199909AA09BB0949895A89C3
:103200006B897C89840F951FA61FB71FB701A60184
:10321000F7FE07C044275527BA014C195D096E090E
:103220007F09840F951FA61FB71F081719072A07C4
:103230003B076CF50E94351751E050939103809144
:10324000730390917403A0917503B0917603880D78
:10325000991DAA1DBB1D8093920390939303A09385
:103260009403B09395038091770390917803A09194
:103270007903B0917A038C0D9D1DAE1DBF1D809307
:10328000960390939703A0939803B0939903698151
:103290007A818B819C81298D3A8D4B8D5C8D620F5B
:1032A000731F841F951F69837A838B839C834D8949
:1032B0005E896F89788D440E551E661E771E898142
:1032C0009A81AB81BC812EE0B595A795979587959E
:1032D0002A95D1F76091770370917803680F791F71
:1032E000930182014EE035952795179507954A95EC
:1032F000D1F78091730390917403080F191F8FEF1A
:103300009FE0801B910B0E9480178FE090E0019757
:10331000F1F75FEF251A350A39CF809191038111BA
:1033200038C080918D0390918E03A0918F03B0914E
:1033300090038F3F6FEF9607A607B60751F14091B4
:10334000890350918A0360918B0370918C038417D9
:103350009507A607B707ECF40E94351781E0809324
:10336000910389859A85AB85BC8580939203909360
:103370009303A0939403B09395032D853E854F85C9
:103380005889209396033093970340939803509362
:10339000990349855A856B857C85409373035093C7
:1033A000740360937503709376036D857E858F85B6
:1033B000988960937703709378038093790390934F
:1033C0007A038FEF9FE0841B950B6D857E850E94AD
:1033D00080178FE090E00197F1F76C960FB6F894A4
:1033E000DEBF0FBECDBFDF91CF911F910F91FF9038
:1033F000EF90DF90CF90BF90AF909F908F907F9095
:103400006F905F904F903F902F9008952F923F9232
:103410004F925F926F927F928F929F92AF92BF92E4
:10342000CF92DF92EF92FF920F931F93CF93DF9390
:10343000CDB7DEB7E4970FB6F894DEBF0FBECDBFB1
:103440002B013C0149015A018091B203882309F400
:10345000BDC09B01770F440B550B29833A834B83E7
:103460005C83092C000CAA08BB088091D7039091BB
:10347000D803A091D903B091DA038D839E83AF83E3
:10348000B8876091BB037091BC038091BD0390919C
:10349000BE030E94FC356B017C016091C7037091F3
:1034A000C8038091C9039091CA03A50194010E94A9
:1034B000FC35C60ED71EE81EF91E4EE0F594E794C3
:1034C000D794C7944A95D1F70D2C000CEE08FF084D
:1034D0002D813E814F815885C20ED31EE41EF51EFC
:1034E0006091B3037091B4038091B5039091B603DA
:1034F00029813A814B815C810E94FC352B013C0182
:103500006091BF037091C0038091C1039091C20389
:10351000A50194010E94FC35460E571E681E791EB7
:103520005EE075946794579447945A95D1F7D20109
:103530002D813E814F8158850E946736A7019601F3
:103540000E94423629013A0188E0580E611C711C24
:103550006091B7037091B8038091B9039091BA0359
:1035600029813A814B815C810E94FC3569837A8391
:103570008B839C836091C3037091C4038091C503C6
:103580009091C603A50194010E94FC3529813A81DE
:103590004B815C81620F731F841F951FEEE0959530
:1035A000879577956795EA95D1F7DB012D813E8167
:1035B0004F8158850E946736A70196010E944236C6
:1035C00049015A0188E0980EA11CB11CC301B20147
:1035D0000E946F332B013C0120E030EF4FE755E4B0
:1035E0000E944A3569877A878B879C87C501B40119
:1035F0000E946F3369837A838B839C8320E030EF52
:103600004FE755E40E944A356B017C0120917D0310
:1036100030917E0340917F03509180032D833E8340
:103620004F8358872DEC3CEC4CE45EE369857A854A
:103630008B859C850E94CE339B01AC016AE979E9B8
:1036400089E99FE30E94DD349B01AC0160E070E0FA
:1036500080E89FE30E944A35A30192010E94CE3385
:103660004B015C0120E030E046E953E4C701B601BC
:103670000E94CE332B013C0129853A854B855C8520
:1036800060E070E080E89FE30E94DD349B01AC01C4
:10369000C301B2010E94CE339B01AC01C501B4014C
:1036A0000E94DE340E94BC359B01AC016D817E819D
:1036B0008F8198850E94FC35705E8F4F9F4F2EE062
:1036C00095958795779567952A95D1F78090810391
:1036D00090908203A0908303B09084039B01AC017F
:1036E000280D391D4A1D5B1D2BA33CA34DA35EA3D2
:1036F0002DEC3CEC4CEC5DE3C701B6010E94CE33EF
:1037000020E030E040E85FE30E94DE349B01AC0142
:1037100060E070E080E89FE30E944A3529813A81A9
:103720004B815C810E94CE330E94BC359B01AC0171
:103730006D817E818F8198850E94FC35705E8F4FF0
:103740009F4F3EE095958795779567953A95D1F788
:10375000C0908503D0908603E0908703F0908803A3
:103760009B01AC012C0D3D1D4E1D5F1D2FA338A7E5
:1037700049A75AA780919A0390919B03A0919C031B
:10378000B0919D038BA79CA7ADA7BEA720919E03D8
:1037900030919F034091A0035091A1032FA738AB14
:1037A00049AB5AABBC01CD010E94FC159A878987B1
:1037B0002FA138A549A55AA56BA17CA18DA19EA1D9
:1037C0000E94FC159E878D878091A2039091A30390
:1037D000A091A403B091A5038F8F98A3A9A3BAA326
:1037E0002091AA033091AB034091AC035091AD03FB
:1037F0002B8F3C8F4D8F5E8F8091A6039091A703F6
:10380000A091A803B091A9038F8B988FA98FBA8F2D
:103810002091AE033091AF034091B0035091B103BA
:103820002B8B3C8B4D8B5E8BCFA4D8A8E9A8FAA834
:103830008BA49CA4ADA4BEA48FA198A5A9A5BAA54C
:1038400089839A83AB83BC832BA13CA14DA15EA14C
:103850002D833E834F83588789859A854D855E8564
:10386000842B952B892B09F45FC189859A85842344
:103870009523892B09F07AC189859A85009709F4E7
:1038800073C0988B8F87BF85B3FF73C06D817E81B6
:103890008F819885681979098A099B090E946F337D
:1038A0002B013C016B897C898D899E896C197D096E
:1038B0008E099F090E946F339B01AC01C301B201C5
:1038C0000E94CE332B013C0169817A818B819C81DE
:1038D0006C197D098E099F090E946F339B01AC0111
:1038E000C301B2010E944A352B013C01C501B4015C
:1038F0000E946F339B01AC01C301B2010E94DE3410
:103900000E94BC358B018CAB9BAB2B89298B3C89EE
:103910003A8B2D883E8829893A89A101B8018CA962
:103920009BA90E94FC15A985BA852F853889A21705
:10393000B30769F0398939834A894A832B823C82EB
:103940000D831E835CA95F83ABA9A8870AC0C988C1
:10395000DA8871014801ACA8BBA889879A878D8550
:103960009E858D879E8778CFAD85BE85B88BAF87C6
:103970008ACF4F8542FF46C06D817E818F819885B9
:10398000681979098A099B090E946F332B013C0150
:103990006F89788D898D9A8D6C197D098E099F09A3
:1039A0000E946F339B01AC01C301B2010E94CE3370
:1039B0002B013C0169817A818B819C816C197D0985
:1039C0008E099F090E946F339B01AC01C301B201B4
:1039D0000E944A352B013C01C501B4010E946F339E
:1039E0009B01AC01C301B2010E94DE340E94BC35D0
:1039F0008B018CAB9BAB5F89598B888D8A8B298C13
:103A00003A8C89CF9F8591FF46C069817A818B81ED
:103A10009C816C197D098E099F090E946F332B01CF
:103A20003C016B8D7C8D8D8D9E8D681979098A097D
:103A30009B090E946F339B01AC01C301B2010E943C
:103A4000CE332B013C016D817E818F819885681971
:103A500079098A099B090E946F339B01AC01C3015C
:103A6000B2010E944A352B013C01C701B6010E94F8
:103A70006F339B01AC01C301B2010E94DE340E948E
:103A8000BC35698B7A8B1C010B8D1C8DAD8DACAB5D
:103A9000BE8DBBAB40CF2F8520FF3DCF69817A81A2
:103AA0008B819C816C197D098E099F090E946F335F
:103AB0002B013C016F8D78A189A19AA16819790920
:103AC0008A099B090E946F339B01AC01C301B201BB
:103AD0000E94CE332B013C016D817E818F819885C0
:103AE000681979098A099B090E946F339B01AC010F
:103AF000C301B2010E944A352B013C01C701B60146
:103B00000E946F339B01AC01C301B2010E94DE34FD
:103B10000E94BC35698B7A8B1C010F8D18A139A1CD
:103B20003CAB4AA14BABF7CE8BA59CA5ADA5BEA5E2
:103B300088159905AA05BB0549F42FA538A949A9F7
:103B40005AA92C153D054E055F0531F0A7019601D8
:103B5000C501B4010E94DF1729813A814B815C8144
:103B60006D817E818F8198850E94DF178BA19CA13A
:103B7000ADA1BEA180939A0390939B03A0939C0355
:103B8000B0939D032FA138A549A55AA520939E0364
:103B900030939F034093A0035093A103E4960FB684
:103BA000F894DEBF0FBECDBFDF91CF911F910F9173
:103BB000FF90EF90DF90CF90BF90AF909F908F904D
:103BC0007F906F905F904F903F902F9008958091DD
:103BD0007B0390917C03892B99F48091910381114F
:103BE0000FC08BE697E10197F1F781E090E09093A9
:103BF0007C0380937B0361E080916D030C94071735
:103C000008952F923F924F925F926F927F928F9280
:103C10009F92AF92BF92CF92DF92EF92FF920F935B
:103C20001F93CF93DF9300D000D000D0CDB7DEB785
:103C30009E838D831B0129013A01670178010E944F
:103C40003517ED81FE8185909490ED81FE8132964D
:103C5000A590B4908D819E8104969E838D8391E082
:103C6000291A310897FE53C00E94E71DB50190E064
:103C700080E00E946D33A70196010E94CE3320E0C0
:103C800030E0A9010E94DE340E94BC3569837A834A
:103C90008B839C83E89497F8B40190E080E00E94C5
:103CA0006D33A70196010E94CE334B015C01C30125
:103CB000B2010E946F339B01AC01C501B4010E94A7
:103CC000DE340E94BC3529813A814B815C810E949F
:103CD000061A2114310409F0B4CF26960FB6F894D1
:103CE000DEBF0FBECDBFDF91CF911F910F91FF902F
:103CF000EF90DF90CF90BF90AF909F908F907F908C
:103D00006F905F904F903F902F900C9435170E94CA
:103D10003517ACCF4F925F926F927F92AF92BF9266
:103D2000CF92DF92EF92FF920F931F93CF93DF9387
:103D3000CDB7DEB728970FB6F894DEBF0FBECDBF64
:103D40002B013C0129833A834B835C83ED82FE8205
:103D50000F8318878091730390917403A09175036A
:103D6000B091760384159505A605B70569F4809191
:103D7000770390917803A0917903B0917A03821729
:103D80009307A407B50751F00E94351729813A819E
:103D90004B815C81C301B2010E94061A0E94E71D9B
:103DA000A60195016D817E818F8198850E94061AFA
:103DB0008BE193E00197F1F728960FB6F894DEBFF8
:103DC0000FBECDBFDF91CF911F910F91FF90EF906C
:103DD000DF90CF90BF90AF907F906F905F904F90AB
:103DE00008952F923F924F925F926F927F928F929F
:103DF0009F92AF92BF92CF92DF92EF92FF920F937A
:103E00001F93CF93DF93CDB7DEB72A970FB6F89401
:103E1000DEBF0FBECDBF1C014B018AEA9AE0A0E0D5
:103E2000B0E080936F0390937003A0937103B093FD
:103E300072031092810310928203109283031092F6
:103E400084031092850310928603109287031092C8
:103E50008803A12CB12C6501E12C10E1F12E00E0CA
:103E600010E020E030E0A90160E070E0CB010E94AA
:103E70008A1EA12C30E1B32EC12CD12C20E030E1E0
:103E800040E050E060E070E0CB010E948A1EE12C2F
:103E9000F12C870120E030E0A90160E070E0CB0167
:103EA0000E948A1EE12C10E1F12E00E010E020E0DB
:103EB00030E0A90160E070E180E090E00E948A1E9D
:103EC00091012F5F3F4F032E000C440B550B412CEB
:103ED00060E1562E612C712CC301B2010E94423662
:103EE00029833A834B835C8394012F5F3F4F032EDA
:103EF000000C440B550BC301B2010E9442362D83C6
:103F00003E834F83588729013A0181E090E09A87E8
:103F10008987A12C90E1B92EC12CD12C830172018B
:103F200020E030E0A901C301B2010E948A1EA985E8
:103F3000BA851196BA87A9878D819E81AF81B88590
:103F4000480E591E6A1E7B1EA985BA858A169B06D5
:103F500004F749805A806B807C8081E090E09E83EA
:103F60008D8363015201E12C10E1F12E00E010E09D
:103F7000A301920160E070E0CB010E948A1EAD8136
:103F8000BE811196BE83AD8389819A81AB81BC814C
:103F9000480E591E6A1E7B1EAD81BE812A163B0645
:103FA00004F72A960FB6F894DEBF0FBECDBFDF919F
:103FB000CF911F910F91FF90EF90DF90CF90BF9026
:103FC000AF909F908F907F906F905F904F903F90B9
:103FD0002F900C943517CF93DF9390E0FC01E359B9
:103FE000F44D24918557944DFC0184918823C9F0A8
:103FF00090E0880F991FFC01EB5BF44DA591B49103
:10400000FC01EF57F44DC591D49161110DC09FB7DC
:10401000F8948C91209582238C938881282328837F
:104020009FBFDF91CF910895623051F49FB7F8940C
:104030003C91822F809583238C93E8812E2BEFCFA8
:104040008FB7F894EC912E2B2C938FBFEACF3FB70C
:10405000F8948091450290914602A0914702B09158
:10406000480226B5A89B05C02F3F19F00196A11D57
:10407000B11D3FBFBA2FA92F982F8827BC01CD01B2
:10408000620F711D811D911D42E0660F771F881F11
:10409000991F4A95D1F708950F931F93CF93DF93FC
:1040A000CDB7DEB729970FB6F894DEBF0FBECDBFF0
:1040B00080915E0390915F03892B09F47CC00E947C
:1040C00027200091640310916503209166033091CD
:1040D0006703601771078207930740F460936403D6
:1040E0007093650380936603909367030091640364
:1040F000109165032091660330916703601B710B7B
:10410000820B930B6C32714081059105C0F2F894DB
:104110008091590390915A039A838983E0915E03B9
:10412000F0915F03DF01119680818987909155039B
:10413000E0916803F091690380916A03992309F47F
:1041400045C09081982B98879081809589238F8393
:104150008F818C8388E08B8358856F8149853B8173
:104160002C8189819A81508347FD252F3A952083A0
:10417000262F39F0441F00C000006083000000C0FB
:10418000F2CF38E04D9160830000019761F7F09322
:104190006903E093680349873B832C839A8389836F
:1041A00078940E9427206093640370936503809342
:1041B00066039093670329960FB6F894DEBF0FBE8F
:1041C000CDBFDF91CF911F910F9108959081982BD2
:1041D00098879081809589238F838F818E8388E053
:1041E0008D8358856F8149853D812E8189819A8192
:1041F000508347FD252F00C000C0208300C000C0B1
:1042000000C000C000C060830000262F3A9541F036
:10421000441F000000C000C000C000C000C0E8CFC4
:1042200038E04D9100C0608300C0019709F7F0931A
:104230006903E093680349873D832E83AFCF8F9254
:104240009F92AF92BF92CF92DF92EF92FF926B015B
:104250007C010E9427204B015C01C114D104E104C0
:10426000F104B9F00E942720681979098A099B098D
:10427000683E73408105910580F321E0C21AD108A0
:10428000E108F10888EE880E83E0981EA11CB11C9D
:10429000E4CFFF90EF90DF90CF90BF90AF909F90D2
:1042A0008F900895AF92BF92CF92DF92EF92FF92DC
:1042B0000F931F93CF93DF936C017B018B01040F4E
:1042C000151FEB015E01AE18BF08C017D10759F0EA
:1042D0006991D601ED91FC910190F081E02DC6012C
:1042E0000995892B79F7C501DF91CF911F910F9126
:1042F000FF90EF90DF90CF90BF90AF900895FC01BA
:10430000538D448D252F30E0842F90E0821B930B3A
:10431000541710F0CF96089501970895FC01918DE0
:10432000828D981761F0A28DAE0FBF2FB11D5D96E3
:104330008C91928D9F5F9F73928F90E008958FEF85
:104340009FEF0895FC01918D828D981731F0828D39
:10435000E80FF11D858D90E008958FEF9FEF089590
:10436000FC01918D228D892F90E0805C9F4F821BF4
:1043700091098F739927089589E592E00E94B021F1
:1043800021E0892B09F420E0822F089580E090E05D
:10439000892B29F00E94BC2181110C940000089502
:1043A000FC01A48DA80FB92FB11DA35ABF4F2C91AA
:1043B000848D90E001968F739927848FA689B789A1
:1043C0002C93A089B1898C91837080648C93938D98
:1043D000848D981306C00288F389E02D80818F7D3B
:1043E00080830895EF92FF920F931F93CF93DF93F3
:1043F000EC0181E0888F9B8D8C8D98131AC0E88921
:10440000F989808185FF15C09FB7F894EE89FF89EF
:104410006083E889F98980818370806480839FBF8D
:1044200081E090E0DF91CF911F910F91FF90EF908D
:104430000895F62E0B8D10E00F5F1F4F0F7311279D
:10444000E02E8C8D8E110CC00FB607FCFACFE889D8
:10445000F989808185FFF5CFCE010E94D021F1CF6F
:10446000EB8DEC0FFD2FF11DE35AFF4FF0829FB74C
:10447000F8940B8FEA89FB8980818062CFCF0F93FC
:104480001F93CF93DF938C01D0E0C0E0F801EC0FD5
:10449000FD1F6491662341F089E592E00E94F221BC
:1044A000892B11F02196F2CFCE01DF91CF911F9190
:1044B0000F910895CF93DF93EC01888D8823B9F095
:1044C000AA89BB89E889F9898C9185FD03C080811F
:1044D00086FD0DC00FB607FCF7CF8C9185FFF2CF9C
:1044E000808185FFEDCFCE010E94D021E9CFDF9101
:1044F000CF9108952091DA013091DB012817390717
:1045000071F49091D8018091D901981741F0E09110
:10451000D801F0E0E956FE4F808190E008958FEFDA
:104520009FEF08950895EF92FF920F931F93CF93FB
:10453000DF93DC015C96ED90FC905D97E114F10453
:1045400079F481E090E013969C938E93129790E01B
:1045500080E0DF91CF911F910F91FF90EF90089530
:104560005196ED91FC91529750968C915097982FBF
:1045700090950FB75E962C915E97122F127021FDC9
:104580006095F8942081112319F1282B2083E701ED
:104590002197F1F728E0462F50E0308160FF1AC0E4
:1045A000382B3083E7012197F1F7BA0175956795AC
:1045B000215089F7112381F08081892380830FBFE7
:1045C0005C968D919C910197F1F781E090E0C1CFCD
:1045D0002923DCCF3923E5CF9081892BEFCF2091A0
:1045E000DA013091DB012817390761F48091D90194
:1045F0002091D80190E0805C9F4F821B91098F73BE
:104600009927089590E080E008952091DA01309193
:10461000DB0128173907B9F49091D8018091D901AD
:10462000981789F0E091D801F0E0E956FE4F8081BB
:104630002091D80130E02F5F3F4F2F733327209315
:10464000D80190E008958FEF9FEF089590E080E00B
:104650000895CF93DF93D0E0C0E040E050E0BA018E
:10466000CE010E9444162196CC30D105B1F7DF91DE
:10467000CF910C944C200E94292380913203909179
:1046800033038130910501F124F4892B81F00C94DE
:104690004C208230910509F10397C9F740912E0310
:1046A00050912F03609130037091310308C0409105
:1046B000220350912303609124037091250390E01D
:1046C00080E00E944416E3CF4091260350912703D7
:1046D0006091280370912903F2CF40912A035091F1
:1046E0002B0360912C0370912D03E9CFCF93DF93BF
:1046F000CBE6D3E060E08A810E940717198A188A06
:104700001092E001DF91CF910895CF92DF92EF9266
:10471000FF928FB7F894C0904102D0904202E0908F
:104720004302F09044028FBF8091230290912402B3
:10473000892B81F18091260290912702A091280275
:10474000B0912902A7019601281B390B4A0B5B0B7C
:10475000DA01C90184369105A105B105D8F010929E
:10476000240210922302109225028091320290912D
:104770003302A0913402B09135020196A11DB11D02
:104780008093320290933302A0933402B0933502A7
:104790000E9476238091E001882391F18091DC01D1
:1047A0009091DD01A091DE01B091DF01C81AD90A14
:1047B000EA0AFB0A38EEC31633E0D306E104F1043B
:1047C000F8F080912E0290912F02A0913002B091CA
:1047D00031020196A11DB11D80932E0290932F02EC
:1047E000A0933002B093310210922402109223025F
:1047F00010922502FF90EF90DF90CF900C947623DB
:10480000FF90EF90DF90CF900895823091F020F4E8
:10481000813051F080E00CC0833079F08430D1F7E2
:1048200081E0662329F0F6CF6A5081E0673390F784
:10483000089581E0643071F7FBCF6D7FF1CF0F9366
:104840001F93CF93DF93182FEB01042F642F0E9447
:104850000524882311F11230A1F4888199819827C9
:10486000892798279F778115904148F42A813B81B9
:1048700032272327322781E02115304170F080E074
:104880000CC0133079F4002341F088818823B9F3F8
:104890009981955081E0943C90F7DF91CF911F91E1
:1048A0000F9108951430C9F398818FEF890F8733E2
:1048B00030F7492F50E09A01275F3F4F0217130648
:1048C000F1F6FE01319680E0219120522F35B8F6A5
:1048D0008F5F9813F9CFC40FD51F8981882379F290
:1048E0008B819C819827892798278115904138F6DC
:1048F0008D819E819827892798278115904108F0FE
:10490000BECF8F818550843C08F0B9CF81E0988577
:104910009111C3CFB4CFE8E6F0E0893621E09207E9
:10492000B8F59C012F503140E8E6F1E0E81BF90BA7
:104930002A35310548F19C01255B31092A353105BD
:1049400098F4FC01EE0FFF1FE050F1408591949127
:10495000B0E0A0E09C01AD0166277727CB01621B88
:10496000730B840B950B08959C012B553109FC01A9
:104970002A35310548F4E4EBF0E0E81BF90BEE0FC3
:10498000FF1FE859FF4FE2CFEE0FFF1FE859FF4F1F
:104990006591749190E080E008959C01265A3F4F04
:1049A000E8E6F0E0233C41E0340798F5AC014F50D5
:1049B00051404A35510598F4FC01EE0FFF1FE45BAE
:1049C000F14085919491B0E0A0E09C01AD01662793
:1049D0007727CB01621B730B840B950B0895AC01F9
:1049E000455B51094A35510548F4E8E6F1E0E21B20
:1049F000F30BEE0FFF1FE859FF4FE3CFAC014B5510
:104A000051094A35510550F4FC01EE0FFF1FEC54DB
:104A1000F0406591749190E080E00895E4EBF0E05F
:104A2000E21BF30BEE0FFF1FE859FF4FF2CF2F925F
:104A30003F924F925F926F927F928F929F92AF922E
:104A4000BF92CF92DF92EF92FF920F931F93CF937B
:104A5000DF93CDB7DEB7C855D1090FB6F894DEBFE6
:104A60000FBECDBF2F969FAF8EAF2F972A013B0170
:104A700065963FAF2EAF659767961FAF0EAF6797EE
:104A8000870116016996BFAEAEAE699720E030E0AF
:104A900040EA50E4CB01B2010E94CE3363966CAF82
:104AA0007DAF8EAF9FAF639784E2E6E0F1E0DE0179
:104AB000119601900D928A95E1F7C7010E948B240F
:104AC0002D966CAF7DAF8EAF9FAF2D97C7010E9423
:104AD000CD244B015C01C7010E94CD246B017C01F8
:104AE000C8010E948B242D962CAD3DAD4EAD5FAD1F
:104AF0002D9729833A834B835C838D829E82AF827C
:104B0000B886F094E094D094C094C11CD11CE11CF0
:104B1000F11CCD86DE86EF86F88A698B7A8B8B8BCB
:104B20009C8B84E2FE013196DE01959601900D92F8
:104B30008A95E1F781E08093B20384E2FE01B596A5
:104B4000A3EBB3E001900D928A95E1F781E090E04C
:104B5000A0E0B0E08093D7039093D803A093D9034B
:104B6000B093DA032114310419F422242394312C54
:104B7000B101330C880B990B0E946F339B01AC0180
:104B800060E070E080EA90E40E944A3520E030E086
:104B900040E856E40E94CE330E94BC3560936F0318
:104BA00070937003809371039093720365964EAD7A
:104BB0005FAD6597CA01550FAA0BBB0B80938103AC
:104BC00090938203A0938303B093840367968EAD82
:104BD0009FAD67978C01990F220B330B00938503D0
:104BE000109386032093870330938803312C212C64
:104BF0006996EEADFFAD69972E163F0609F403C224
:104C0000812C912C5401D12CC12C2F96EEADFFADEF
:104C10002F9784819581C816D90608F0F0C180814C
:104C20009181009709F4EBC18C0D9D1DFC01108151
:104C3000112309F4E4C120E030E844E554E4C30161
:104C4000B2010E94CE330E94BC352D966CAF7DAF71
:104C50008EAF9FAF2D97E0EEE10FEB3308F04CC025
:104C60000E2E000CFF0BE95CF94D0C946136EE271B
:104C7000D3277C267C267C267C267C267C267C26CC
:104C80007C267C267C267C267C26E5277C267927AC
:104C900082278B2794279D27A627AF27B827C127D0
:104CA000CA277C267C267C267C267C26DC277C2644
:104CB00072269826A126AA26B326BC26C526CE266D
:104CC000D726E026E926F226FB2604270D271627FD
:104CD0001F27282731273A2743274C2755275E27A8
:104CE0006727702783017201A501940162E370E0D8
:104CF00086E495E20E94011E2D966CAD7DAD8EADD1
:104D00009FAD2D97680D791D8A1D9B1D0E946F33E5
:104D100063962CAD3DAD4EAD5FAD63970E94DE3422
:104D20000E94BC354B015C01FFEFCF1ADF0A6DCF4B
:104D300083017201A501940164E670E086EB93E2C1
:104D4000D9CF83017201A501940163E470E08AEA7E
:104D500092E2D0CF83017201A501940160E570E079
:104D60008AE691E2C7CF83017201A501940164E351
:104D700070E08AE990E2BECF83017201A50194013F
:104D800067E270E08EEF9FE1B5CF83017201A5016C
:104D900094016FE470E082EC9EE1ACCF830172017C
:104DA000A50194016FE270E086E09EE1A3CF83014C
:104DB0007201A50194016FE170E08AE89DE19ACF4C
:104DC00083017201A50194016FE270E08EEC9CE119
:104DD00091CF83017201A501940160E370E08EE040
:104DE0009CE188CF83017201A501940160E270E02B
:104DF0008EE89BE17FCF83017201A501940160E4FD
:104E000070E08EE89AE176CF83017201A5019401EA
:104E100069E370E08AEA99E16DCF83017201A5012F
:104E200094016CE470E08AE798E164CF8301720139
:104E3000A50194016DE370E086E897E15BCF830103
:104E40007201A501940164E670E086EF95E152CF0E
:104E500083017201A501940166E470E08EED94E196
:104E600049CF83017201A50194016DE570E08AE6E6
:104E700093E140CF83017201A501940164E270E0E7
:104E80008AED92E137CF83017201A50194016BE3B2
:104E900070E08EEE91E12ECF83017201A5019401A5
:104EA0006CE270E08EE391E125CF83017201A501F0
:104EB00094016CE470E08EE090E11CCF83017201FC
:104EC000A50194016BE270E082E69FE013CF8301BD
:104ED0007201A501940164E270E082ED9EE00ACFC8
:104EE00083017201A501940162E370E08AE09EE013
:104EF00001CF83017201A50194016EE470E082ED9F
:104F00009CE0F8CE83017201A501940166E270E095
:104F10008AE39CE0EFCE83017201A501940160E475
:104F200070E08AE39BE0E6CE83017201A501940163
:104F30006AE570E082ED99E0DDCE83017201A501A2
:104F400094016CE270E082E299E0D4CE83017201B8
:104F5000A501940162E470E08AE198E0CBCE830180
:104F60007201A501940160E670E08AE996E0C2CE84
:104F700083017201A501940163E270E08EE096E086
:104F8000B9CE83017201A501940167E870E082EF58
:104F900093E0B0CE83017201A50194016FE570E04A
:104FA00086E792E0A7CE83017201A50194016AE130
:104FB00070E08EE092E09ECE83017201A501940123
:104FC00065E370E08AE391E095CE83017201A5016B
:104FD000940167E070E08EE191E08CCE20E030E05B
:104FE00048EC53E4C301B2010E94CE330E94BC35A9
:104FF0002D966CAF7DAF8EAF9FAF2D977DCE2FEFEF
:10500000221A320AF5CD1092B203C85ADF4F0FB6FA
:10501000F894DEBF0FBECDBFDF91CF911F910F91EE
:10502000FF90EF90DF90CF90BF90AF909F908F90C8
:105030007F906F905F904F903F902F900895FC016C
:1050400001900020E9F73197AF01481B590BBC01D3
:1050500089E592E00C9452218F929F92AF92BF9279
:105060000F931F93CF93DF93CDB7DEB7A1970FB602
:10507000F894DEBF0FBECDBF19A2423008F44AE05B
:105080008E010F5D1F4F842E912CB12CA12CA501F8
:1050900094010E942036E62FB901CA01EA30F4F4E7
:1050A000E05DD801EE938D01232B242B252B79F77E
:1050B00090E080E0109719F0CD010E941F28A19682
:1050C0000FB6F894DEBF0FBECDBFDF91CF911F9119
:1050D0000F91BF90AF909F908F900895E95CE1CFC2
:1050E000CF93DF930E941F28EC0182E791E00E949A
:1050F0001F288C0F9D1FDF91CF910895CF93DF93D1
:10510000682F70E090E080E04AE00E942C28EC01DB
:1051100082E791E00E941F288C0F9D1FDF91CF91A5
:1051200008954F925F926F927F928F929F92AF926B
:10513000BF92CF92DF92EF92FF926B017C01AC01A4
:105140009B010E94F7358823C1F085E791E00E941A
:105150001F287C0182E791E00E941F288E0D9F1D71
:10516000FF90EF90DF90CF90BF90AF909F908F9087
:105170007F906F905F904F90089546015701E8949B
:10518000B7F82FEF3FEF4FE75FE7C501B4010E948B
:10519000F73581110DC02FEF3FEF4FE75FE7C501F6
:1051A000B4010E94683318161CF489E791E0CFCF50
:1051B0002FEF3FEF4FE75FE4C701B6010E94F235E2
:1051C00018161CF48DE791E0C2CF2FEF3FEF4FE7A9
:1051D0005FECC701B6010E94683387FDF3CF20E082
:1051E00030E0A901C701B6010E946833B12CA12C9F
:1051F00087FF0AC06DE289E592E00E94F2215C011E
:10520000F7FAF094F7F8F0942AE037ED43EA5BE31D
:10521000C701B6010E94DE342B013C010E94C33558
:105220006B017C010E946D339B01AC01C301B20193
:105230000E94DD342B013C014AE0C701B6010E9407
:105240002C287C01EA0CFB1C6EE289E592E00E94AE
:10525000F221E80EF91E20E030E040E251E4C30103
:10526000B2010E94CE332B013C010E94C3354B0199
:10527000B12CA12C4AE0C501B4010E942C28E80EF3
:10528000F91EC501B4010E946D339B01AC01C3013D
:10529000B2010E94DD3420E030E040E251E40E949F
:1052A000CE330E94C33590E080E04AE00E942C2873
:1052B000E80EF91E4FCF1F920F920FB60F921124D6
:1052C0002F933F938F939F93AF93BF93809141020E
:1052D00090914202A0914302B09144023091400269
:1052E00023E0230F2D3758F50196A11DB11D209302
:1052F00040028093410290934202A0934302B093F4
:1053000044028091450290914602A0914702B091DB
:1053100048020196A11DB11D80934502909346025B
:10532000A0934702B0934802BF91AF919F918F9194
:105330003F912F910F900FBE0F901F90189526E868
:10534000230F0296A11DB11DD2CF1F920F920FB64F
:105350000F9211242F933F934F935F936F937F93FB
:105360008F939F93AF93BF93EF93FF9389E592E061
:105370000E94D021FF91EF91BF91AF919F918F91AA
:105380007F916F915F914F913F912F910F900FBE41
:105390000F901F9018951F920F920FB60F92112425
:1053A0002F938F939F93EF93FF93E0916902F09176
:1053B0006A028081E0916F02F091700282FD1BC051
:1053C0009081809172028F5F8F7320917302821798
:1053D00041F0E0917202F0E0E75AFD4F958F809323
:1053E0007202FF91EF919F918F912F910F900FBEBD
:1053F0000F901F9018958081F4CF1F920F920FB6D7
:105400000F9211242F933F934F935F936F937F934A
:105410008F939F93AF93BF93EF93FF93E091DA0144
:10542000F091DB01309749F0A685B7858585968D8B
:1054300091FF14C09C918923A1F4FF91EF91BF913A
:10544000AF919F918F917F916F915F914F913F911C
:105450002F910F900FBE0F901F9018959C9189234C
:1054600061F7A389B4899C918589809589238C9360
:10547000868997890197F1F7608D718DA685B7852B
:10548000558538E020E0CB010197F1F7822F90E0BD
:1054900095958795282F4C91452309F02068315028
:1054A00091F7868D81FD20958091D90190E001963C
:1054B0008F7399273091D801381799F0A091D901AD
:1054C000B0E0A956BE4F2C938093D901828D938D65
:1054D0000197F1F7A389B4898C919589892B8C93D5
:1054E000ACCF868D8160868FF1CF10925C021092D6
:1054F0005B0288EE93E0A0E0B0E080935D029093C1
:105500005E02A0935F02B093600282E591E0909307
:105510005A028093590285EC90E090936602809342
:10552000650284EC90E0909368028093670280ECBF
:1055300090E090936A028093690281EC90E09093EE
:105540006C0280936B0282EC90E090936E028093E9
:105550006D0286EC90E09093700280936F0210923F
:1055600072021092730210927402109275021092DD
:10557000560310925D03109264031092650310921B
:1055800066031092670381E0809363038093600356
:105590001092610392E0909362038093550384E23A
:1055A00090E090935A03809359030E94833690931E
:1055B0005F0380935E03009709F401C224E2FC01BB
:1055C00011922A95E9F78CE090E09093580380932C
:1055D000570386E090E090935C0380935B03809197
:1055E0005603882341F061E086E00E94EB1F60E0F3
:1055F00086E00E940717E1E9FBE2E491F0E0EE0F9C
:10560000FF1FEF57F44D8591949190936903809318
:105610006803E3E7FBE2E491E0936A031092390345
:105620001092380388EE93E0A0E0B0E080933A0354
:1056300090933B03A0933C03B0933D0384E691E039
:10564000909337038093360310924D0310924C03CE
:1056500010924F0310924E03109251031092500378
:105660001092530310925203609154036E7F6D7F2A
:10567000609354036695617081E0682789E00E9419
:10568000071761E089E00E94EB1FE6E7FBE2E49187
:10569000E0934603E4E9FBE2E491F0E0EE0FFF1F44
:1056A000EF57F44D8591949190934803809347036D
:1056B00060E088E00E94EB1F8091540381FD04C0EC
:1056C00061E088E00E94071788E080934203E5E7E5
:1056D000FBE2E491E0934303E3E9FBE2E491F0E0D1
:1056E000EE0FFF1FED59F44D859194919093450372
:1056F000809344031092F7021092F6021092F9027E
:105700001092F8021092FB021092FA0281E090E0EF
:105710009093FF028093FE02909301038093000315
:1057200010920203109203031092040310920503D7
:1057300080E090E0AFEFB0E0809306039093070322
:10574000A0930803B093090380E09FE7AFEFB0E0B8
:1057500080930A0390930B03A0930C03B0930D0363
:1057600080E09FEFAFEFB0E080930E0390930F03C4
:10577000A0931003B093110380E09FEFA0E0B0E08E
:105780008093120390931303A0931403B093150313
:105790008FEF90E0A0E0B0E08093160390931703A2
:1057A000A0931803B093190382E890E0ABE4B0E053
:1057B00080931A0390931B03A0931C03B0931D03C3
:1057C00083ED90E0A4E9B0E080931E0390931F0363
:1057D000A0932003B093210380E090E0AEE1B0E01D
:1057E0008093220390932303A0932403B093250373
:1057F00080E09EE1A0E0B0E0809326039093270331
:10580000A0932803B09329038EE190E0A0E0B0E0DC
:1058100080932A0390932B03A0932C03B0932D0322
:1058200084E190E0DC0180932E0390932F03A093FA
:105830003003B0933103109233031092320310926D
:1058400035031092340360E082E00E94EB1F60E0B9
:1058500084E00E94EB1F62E083E00E94EB1F82E085
:105860000E94DE169093FD028093FC028EE190E090
:1058700090936C0380936B0384E2EAE2F1E0A3EB84
:10588000B3E001900D928A95E1F785E090E0909366
:105890006E0380936D0382E292E0A0E0B0E080931B
:1058A0006F0390937003A0937103B09372031092EF
:1058B0007303109274031092750310927603109282
:1058C0007703109278031092790310927A03109262
:1058D0009A0310929B0310929C0310929D031092C6
:1058E0009E0310929F031092A0031092A1031092A6
:1058F0007C0310927B0381E090E0A0E0B0E0809315
:105900007D0390937E03A0937F03B0938003109256
:1059100081031092820310928303109284031092E9
:1059200085031092860310928703109288031092C9
:10593000890310928A0310928B0310928C038FEFCD
:105940009FEFDC0180938D0390938E03A0938F03D0
:10595000B0939003109291031092A2031092A303AC
:105960001092A4031092A5031092A6031092A7030D
:105970001092A8031092A9038FEF9FE0A0E0B0E07F
:105980008093AA039093AB03A093AC03B093AD03B1
:105990008093AE039093AF03A093B003B093B10391
:1059A0001092B20388EE93E0A0E0B0E08093D703BA
:1059B0009093D803A093D903B093DA03089510927B
:1059C0005A0310925903109258031092570301CEB4
:1059D000CF93DF93CDB7DEB7C354D1090FB6F89498
:1059E000DEBF0FBECDBF789484B5826084BD84B520
:1059F000816084BD85B5826085BD85B5816085BDCA
:105A000080916E00816080936E0010928100809181
:105A10008100826080938100809181008160809309
:105A20008100809180008160809380008091B1002E
:105A300084608093B1008091B00081608093B00059
:105A400080917A00846080937A0080917A008260ED
:105A500080937A0080917A00816080937A008091AF
:105A60007A00806880937A001092C10062E082E040
:105A70000E94EB1F62E084E00E94EB1F62E083E083
:105A80000E94EB1F60E080916D030E94071761E0A8
:105A900080916D030E94EB1F10927C0310927B0398
:105AA0008CE090E0909357028093560281E08093BF
:105AB000510220E038E030934A02209349023093AB
:105AC0004C0220934B022AE030E0309353022093A3
:105AD000520227E030E03093550220935402809325
